{
  "_format": "hh-sol-artifact-1",
  "contractName": "ALUAssetRegistry",
  "sourceName": "contracts/ALUAssetRegistry.sol",
  "abi": [
    {
      "inputs": [],
      "stateMutability": "nonpayable",
      "type": "constructor"
    },
    {
      "inputs": [
        {
          "internalType": "address",
          "name": "sender",
          "type": "address"
        },
        {
          "internalType": "uint256",
          "name": "tokenId",
          "type": "uint256"
        },
        {
          "internalType": "address",
          "name": "owner",
          "type": "address"
        }
      ],
      "name": "ERC721IncorrectOwner",
      "type": "error"
    },
    {
      "inputs": [
        {
          "internalType": "address",
          "name": "operator",
          "type": "address"
        },
        {
          "internalType": "uint256",
          "name": "tokenId",
          "type": "uint256"
        }
      ],
      "name": "ERC721InsufficientApproval",
      "type": "error"
    },
    {
      "inputs": [
        {
          "internalType": "address",
          "name": "approver",
          "type": "address"
        }
      ],
      "name": "ERC721InvalidApprover",
      "type": "error"
    },
    {
      "inputs": [
        {
          "internalType": "address",
          "name": "operator",
          "type": "address"
        }
      ],
      "name": "ERC721InvalidOperator",
      "type": "error"
    },
    {
      "inputs": [
        {
          "internalType": "address",
          "name": "owner",
          "type": "address"
        }
      ],
      "name": "ERC721InvalidOwner",
      "type": "error"
    },
    {
      "inputs": [
        {
          "internalType": "address",
          "name": "receiver",
          "type": "address"
        }
      ],
      "name": "ERC721InvalidReceiver",
      "type": "error"
    },
    {
      "inputs": [
        {
          "internalType": "address",
          "name": "sender",
          "type": "address"
        }
      ],
      "name": "ERC721InvalidSender",
      "type": "error"
    },
    {
      "inputs": [
        {
          "internalType": "uint256",
          "name": "tokenId",
          "type": "uint256"
        }
      ],
      "name": "ERC721NonexistentToken",
      "type": "error"
    },
    {
      "inputs": [
        {
          "internalType": "address",
          "name": "owner",
          "type": "address"
        }
      ],
      "name": "OwnableInvalidOwner",
      "type": "error"
    },
    {
      "inputs": [
        {
          "internalType": "address",
          "name": "account",
          "type": "address"
        }
      ],
      "name": "OwnableUnauthorizedAccount",
      "type": "error"
    },
    {
      "anonymous": false,
      "inputs": [
        {
          "indexed": true,
          "internalType": "address",
          "name": "owner",
          "type": "address"
        },
        {
          "indexed": true,
          "internalType": "address",
          "name": "approved",
          "type": "address"
        },
        {
          "indexed": true,
          "internalType": "uint256",
          "name": "tokenId",
          "type": "uint256"
        }
      ],
      "name": "Approval",
      "type": "event"
    },
    {
      "anonymous": false,
      "inputs": [
        {
          "indexed": true,
          "internalType": "address",
          "name": "owner",
          "type": "address"
        },
        {
          "indexed": true,
          "internalType": "address",
          "name": "operator",
          "type": "address"
        },
        {
          "indexed": false,
          "internalType": "bool",
          "name": "approved",
          "type": "bool"
        }
      ],
      "name": "ApprovalForAll",
      "type": "event"
    },
    {
      "anonymous": false,
      "inputs": [
        {
          "indexed": true,
          "internalType": "uint256",
          "name": "tokenId",
          "type": "uint256"
        },
        {
          "indexed": false,
          "internalType": "string",
          "name": "assetName",
          "type": "string"
        },
        {
          "indexed": false,
          "internalType": "string",
          "name": "fileType",
          "type": "string"
        },
        {
          "indexed": true,
          "internalType": "bytes32",
          "name": "contentHash",
          "type": "bytes32"
        },
        {
          "indexed": true,
          "internalType": "address",
          "name": "registeredBy",
          "type": "address"
        },
        {
          "indexed": false,
          "internalType": "uint256",
          "name": "registeredAt",
          "type": "uint256"
        }
      ],
      "name": "AssetRegistered",
      "type": "event"
    },
    {
      "anonymous": false,
      "inputs": [
        {
          "indexed": true,
          "internalType": "address",
          "name": "previousOwner",
          "type": "address"
        },
        {
          "indexed": true,
          "internalType": "address",
          "name": "newOwner",
          "type": "address"
        }
      ],
      "name": "OwnershipTransferred",
      "type": "event"
    },
    {
      "anonymous": false,
      "inputs": [
        {
          "indexed": true,
          "internalType": "address",
          "name": "from",
          "type": "address"
        },
        {
          "indexed": true,
          "internalType": "address",
          "name": "to",
          "type": "address"
        },
        {
          "indexed": true,
          "internalType": "uint256",
          "name": "tokenId",
          "type": "uint256"
        }
      ],
      "name": "Transfer",
      "type": "event"
    },
    {
      "inputs": [
        {
          "internalType": "address",
          "name": "to",
          "type": "address"
        },
        {
          "internalType": "uint256",
          "name": "tokenId",
          "type": "uint256"
        }
      ],
      "name": "approve",
      "outputs": [],
      "stateMutability": "nonpayable",
      "type": "function"
    },
    {
      "inputs": [
        {
          "internalType": "address",
          "name": "owner",
          "type": "address"
        }
      ],
      "name": "balanceOf",
      "outputs": [
        {
          "internalType": "uint256",
          "name": "",
          "type": "uint256"
        }
      ],
      "stateMutability": "view",
      "type": "function"
    },
    {
      "inputs": [
        {
          "internalType": "uint256",
          "name": "tokenId",
          "type": "uint256"
        }
      ],
      "name": "getApproved",
      "outputs": [
        {
          "internalType": "address",
          "name": "",
          "type": "address"
        }
      ],
      "stateMutability": "view",
      "type": "function"
    },
    {
      "inputs": [
        {
          "internalType": "uint256",
          "name": "tokenId",
          "type": "uint256"
        }
      ],
      "name": "getAsset",
      "outputs": [
        {
          "components": [
            {
              "internalType": "string",
              "name": "assetName",
              "type": "string"
            },
            {
              "internalType": "string",
              "name": "fileType",
              "type": "string"
            },
            {
              "internalType": "bytes32",
              "name": "contentHash",
              "type": "bytes32"
            },
            {
              "internalType": "address",
              "name": "registeredBy",
              "type": "address"
            },
            {
              "internalType": "uint256",
              "name": "registeredAt",
              "type": "uint256"
            }
          ],
          "internalType": "struct ALUAssetRegistry.AssetMetadata",
          "name": "",
          "type": "tuple"
        }
      ],
      "stateMutability": "view",
      "type": "function"
    },
    {
      "inputs": [
        {
          "internalType": "address",
          "name": "owner",
          "type": "address"
        },
        {
          "internalType": "address",
          "name": "operator",
          "type": "address"
        }
      ],
      "name": "isApprovedForAll",
      "outputs": [
        {
          "internalType": "bool",
          "name": "",
          "type": "bool"
        }
      ],
      "stateMutability": "view",
      "type": "function"
    },
    {
      "inputs": [],
      "name": "name",
      "outputs": [
        {
          "internalType": "string",
          "name": "",
          "type": "string"
        }
      ],
      "stateMutability": "view",
      "type": "function"
    },
    {
      "inputs": [],
      "name": "owner",
      "outputs": [
        {
          "internalType": "address",
          "name": "",
          "type": "address"
        }
      ],
      "stateMutability": "view",
      "type": "function"
    },
    {
      "inputs": [
        {
          "internalType": "uint256",
          "name": "tokenId",
          "type": "uint256"
        }
      ],
      "name": "ownerOf",
      "outputs": [
        {
          "internalType": "address",
          "name": "",
          "type": "address"
        }
      ],
      "stateMutability": "view",
      "type": "function"
    },
    {
      "inputs": [
        {
          "internalType": "string",
          "name": "assetName",
          "type": "string"
        },
        {
          "internalType": "string",
          "name": "fileType",
          "type": "string"
        },
        {
          "internalType": "bytes32",
          "name": "contentHash",
          "type": "bytes32"
        }
      ],
      "name": "registerAsset",
      "outputs": [
        {
          "internalType": "uint256",
          "name": "tokenId",
          "type": "uint256"
        }
      ],
      "stateMutability": "nonpayable",
      "type": "function"
    },
    {
      "inputs": [
        {
          "internalType": "bytes32",
          "name": "",
          "type": "bytes32"
        }
      ],
      "name": "registeredContentHashes",
      "outputs": [
        {
          "internalType": "bool",
          "name": "",
          "type": "bool"
        }
      ],
      "stateMutability": "view",
      "type": "function"
    },
    {
      "inputs": [],
      "name": "renounceOwnership",
      "outputs": [],
      "stateMutability": "nonpayable",
      "type": "function"
    },
    {
      "inputs": [
        {
          "internalType": "address",
          "name": "from",
          "type": "address"
        },
        {
          "internalType": "address",
          "name": "to",
          "type": "address"
        },
        {
          "internalType": "uint256",
          "name": "tokenId",
          "type": "uint256"
        }
      ],
      "name": "safeTransferFrom",
      "outputs": [],
      "stateMutability": "nonpayable",
      "type": "function"
    },
    {
      "inputs": [
        {
          "internalType": "address",
          "name": "from",
          "type": "address"
        },
        {
          "internalType": "address",
          "name": "to",
          "type": "address"
        },
        {
          "internalType": "uint256",
          "name": "tokenId",
          "type": "uint256"
        },
        {
          "internalType": "bytes",
          "name": "data",
          "type": "bytes"
        }
      ],
      "name": "safeTransferFrom",
      "outputs": [],
      "stateMutability": "nonpayable",
      "type": "function"
    },
    {
      "inputs": [
        {
          "internalType": "address",
          "name": "operator",
          "type": "address"
        },
        {
          "internalType": "bool",
          "name": "approved",
          "type": "bool"
        }
      ],
      "name": "setApprovalForAll",
      "outputs": [],
      "stateMutability": "nonpayable",
      "type": "function"
    },
    {
      "inputs": [
        {
          "internalType": "bytes4",
          "name": "interfaceId",
          "type": "bytes4"
        }
      ],
      "name": "supportsInterface",
      "outputs": [
        {
          "internalType": "bool",
          "name": "",
          "type": "bool"
        }
      ],
      "stateMutability": "view",
      "type": "function"
    },
    {
      "inputs": [],
      "name": "symbol",
      "outputs": [
        {
          "internalType": "string",
          "name": "",
          "type": "string"
        }
      ],
      "stateMutability": "view",
      "type": "function"
    },
    {
      "inputs": [
        {
          "internalType": "uint256",
          "name": "tokenId",
          "type": "uint256"
        }
      ],
      "name": "tokenURI",
      "outputs": [
        {
          "internalType": "string",
          "name": "",
          "type": "string"
        }
      ],
      "stateMutability": "view",
      "type": "function"
    },
    {
      "inputs": [
        {
          "internalType": "address",
          "name": "from",
          "type": "address"
        },
        {
          "internalType": "address",
          "name": "to",
          "type": "address"
        },
        {
          "internalType": "uint256",
          "name": "tokenId",
          "type": "uint256"
        }
      ],
      "name": "transferFrom",
      "outputs": [],
      "stateMutability": "nonpayable",
      "type": "function"
    },
    {
      "inputs": [
        {
          "internalType": "address",
          "name": "newOwner",
          "type": "address"
        }
      ],
      "name": "transferOwnership",
      "outputs": [],
      "stateMutability": "nonpayable",
      "type": "function"
    },
    {
      "inputs": [
        {
          "internalType": "uint256",
          "name": "tokenId",
          "type": "uint256"
        },
        {
          "internalType": "bytes32",
          "name": "suppliedHash",
          "type": "bytes32"
        }
      ],
      "name": "verifyLogoIntegrity",
      "outputs": [
        {
          "internalType": "bool",
          "name": "",
          "type": "bool"
        },
        {
          "internalType": "string",
          "name": "",
          "type": "string"
        }
      ],
      "stateMutability": "view",
      "type": "function"
    }
  ],
  "bytecode": "0x608060405234801561001057600080fd5b503360405180604001604052806012815260200171414c5520417373657420526567697374727960701b8152506040518060400160405280600581526020016420a62aa0a960d91b815250816000908161006a91906101b5565b50600161007782826101b5565b5050506001600160a01b0381166100a857604051631e4fbdf760e01b81526000600482015260240160405180910390fd5b6100b1816100b7565b50610277565b600680546001600160a01b038381166001600160a01b0319831681179093556040519116919082907f8be0079c531659141344cd1fd0a4f28419497f9722a3daafe3b4186f6b6457e090600090a35050565b634e487b7160e01b600052604160045260246000fd5b600181811c9082168061013357607f821691505b60208210810361015357634e487b7160e01b600052602260045260246000fd5b50919050565b601f8211156101b057828211156101b057806000526020600020601f840160051c6020851015610187575060005b90810190601f840160051c0360005b818110156101ac57600083820155600101610196565b5050505b505050565b81516001600160401b038111156101ce576101ce610109565b6101e2816101dc845461011f565b84610159565b6020601f82116001811461021657600083156101fe5750848201515b600019600385901b1c1916600184901b178455610270565b600084815260208120601f198516915b828110156102465787850151825560209485019460019092019101610226565b50848210156102645786840151600019600387901b60f8161c191681555b505060018360011b0184555b5050505050565b6118bb806102866000396000f3fe608060405234801561001057600080fd5b506004361061012c5760003560e01c80638802a541116100ad578063b88d4fde11610071578063b88d4fde14610293578063c87b56dd146102a6578063e985e9c5146102b9578063eac8f5b8146102cc578063f2fde38b146102ec57600080fd5b80638802a541146102335780638da5cb5b1461024657806395d89b411461025757806397e430ee1461025f578063a22cb4651461028057600080fd5b806323b872dd116100f457806323b872dd146101d157806342842e0e146101e45780636352211e146101f757806370a082311461020a578063715018a61461022b57600080fd5b806301ffc9a71461013157806306fdde0314610159578063081812fc1461016e578063095ea7b31461019957806316e43462146101ae575b600080fd5b61014461013f366004611263565b6102ff565b60405190151581526020015b60405180910390f35b610161610351565b60405161015091906112d0565b61018161017c3660046112e3565b6103e3565b6040516001600160a01b039091168152602001610150565b6101ac6101a7366004611318565b61040c565b005b6101446101bc3660046112e3565b60096020526000908152604090205460ff1681565b6101ac6101df366004611342565b61041b565b6101ac6101f2366004611342565b6104ab565b6101816102053660046112e3565b6104cb565b61021d61021836600461137f565b6104d6565b604051908152602001610150565b6101ac61051e565b61021d61024136600461144a565b610532565b6006546001600160a01b0316610181565b61016161070b565b61027261026d3660046114bd565b61071a565b6040516101509291906114df565b6101ac61028e3660046114fa565b610805565b6101ac6102a1366004611536565b610810565b6101616102b43660046112e3565b610827565b6101446102c73660046115b2565b61089c565b6102df6102da3660046112e3565b6108ca565b60405161015091906115e5565b6101ac6102fa36600461137f565b610ab8565b60006001600160e01b031982166380ac58cd60e01b148061033057506001600160e01b03198216635b5e139f60e01b145b8061034b57506301ffc9a760e01b6001600160e01b03198316145b92915050565b60606000805461036090611651565b80601f016020809104026020016040519081016040528092919081815260200182805461038c90611651565b80156103d95780601f106103ae576101008083540402835291602001916103d9565b820191906000526020600020905b8154815290600101906020018083116103bc57829003601f168201915b5050505050905090565b60006103ee82610af6565b506000828152600460205260409020546001600160a01b031661034b565b610417828233610b2f565b5050565b6001600160a01b03821661044a57604051633250574960e11b8152600060048201526024015b60405180910390fd5b6000610457838333610b3c565b9050836001600160a01b0316816001600160a01b0316146104a5576040516364283d7b60e01b81526001600160a01b0380861660048301526024820184905282166044820152606401610441565b50505050565b6104c683838360405180602001604052806000815250610810565b505050565b600061034b82610af6565b60006001600160a01b038216610502576040516322718ad960e21b815260006004820152602401610441565b506001600160a01b031660009081526003602052604090205490565b610526610c35565b6105306000610c62565b565b6000816105785760405162461bcd60e51b8152602060048201526014602482015273092dcecc2d8d2c840c6dedce8cadce840d0c2e6d60631b6044820152606401610441565b60008281526009602052604090205460ff16156105ef5760405162461bcd60e51b815260206004820152602f60248201527f41737365742077697468207468697320636f6e74656e74206861736820616c7260448201526e1958591e481c9959da5cdd195c9959608a1b6064820152608401610441565b600160076000828254610602919061168b565b909155505060075490506106163382610cb4565b6040805160a08101825285815260208082018690528183018590523360608301524260808301526000848152600890915291909120815181906106599082611707565b506020820151600182019061066e9082611707565b50604082810151600283015560608301516003830180546001600160a01b0319166001600160a01b0390921691909117905560809092015160049091015560008381526009602052819020805460ff19166001179055513390839083907f813e9b8b609ef99b7c289618ba812dd9968f874c75d2895e7caff9ecc3bb3d71906106fc908990899042906117c6565b60405180910390a49392505050565b60606001805461036090611651565b6000828152600260205260408120546060906001600160a01b03166107785760405162461bcd60e51b8152602060048201526014602482015273105cdcd95d08191bd95cc81b9bdd08195e1a5cdd60621b6044820152606401610441565b6000848152600860205260409020600201548390036107c45750506040805180820190915260128152712637b3b79034b99030baba3432b73a34b19760711b60208201526001906107fe565b505060408051808201909152601d81527f5761726e696e673a206c6f676f20646f6573206e6f74206d617463682e00000060208201526000905b9250929050565b610417338383610cce565b61081b84848461041b565b6104a584848484610d6d565b606061083282610af6565b50600061084a60408051602081019091526000815290565b9050600081511161086a5760405180602001604052806000815250610895565b8061087484610e96565b6040516020016108859291906117fc565b6040516020818303038152906040525b9392505050565b6001600160a01b03918216600090815260056020908152604080832093909416825291909152205460ff1690565b6040805160a081018252606080825260208083018290526000838501819052918301829052608083018290528482526002905291909120546001600160a01b031661094e5760405162461bcd60e51b8152602060048201526014602482015273105cdcd95d08191bd95cc81b9bdd08195e1a5cdd60621b6044820152606401610441565b60008281526008602052604090819020815160a0810190925280548290829061097690611651565b80601f01602080910402602001604051908101604052809291908181526020018280546109a290611651565b80156109ef5780601f106109c4576101008083540402835291602001916109ef565b820191906000526020600020905b8154815290600101906020018083116109d257829003601f168201915b50505050508152602001600182018054610a0890611651565b80601f0160208091040260200160405190810160405280929190818152602001828054610a3490611651565b8015610a815780601f10610a5657610100808354040283529160200191610a81565b820191906000526020600020905b815481529060010190602001808311610a6457829003601f168201915b50505091835250506002820154602082015260038201546001600160a01b0316604082015260049091015460609091015292915050565b610ac0610c35565b6001600160a01b038116610aea57604051631e4fbdf760e01b815260006004820152602401610441565b610af381610c62565b50565b6000818152600260205260408120546001600160a01b03168061034b57604051637e27328960e01b815260048101849052602401610441565b6104c68383836001610f29565b6000828152600260205260408120546001600160a01b0390811690831615610b6957610b6981848661102f565b6001600160a01b03811615610ba757610b86600085600080610f29565b6001600160a01b038116600090815260036020526040902080546000190190555b6001600160a01b03851615610bd6576001600160a01b0385166000908152600360205260409020805460010190555b60008481526002602052604080822080546001600160a01b0319166001600160a01b0389811691821790925591518793918516917fddf252ad1be2c89b69c2b068fc378daa952ba7f163c4a11628f55a4df523b3ef91a4949350505050565b6006546001600160a01b031633146105305760405163118cdaa760e01b8152336004820152602401610441565b600680546001600160a01b038381166001600160a01b0319831681179093556040519116919082907f8be0079c531659141344cd1fd0a4f28419497f9722a3daafe3b4186f6b6457e090600090a35050565b610417828260405180602001604052806000815250611093565b6001600160a01b038216610d0057604051630b61174360e31b81526001600160a01b0383166004820152602401610441565b6001600160a01b03838116600081815260056020908152604080832094871680845294825291829020805460ff191686151590811790915591519182527f17307eab39ab6107e8899845ad3d59bd9653f200f220920489ca2b5937696c31910160405180910390a3505050565b6001600160a01b0383163b156104a557604051630a85bd0160e11b81526001600160a01b0384169063150b7a0290610daf90339088908790879060040161182b565b6020604051808303816000875af1925050508015610dea575060408051601f3d908101601f19168201909252610de791810190611868565b60015b610e53573d808015610e18576040519150601f19603f3d011682016040523d82523d6000602084013e610e1d565b606091505b508051600003610e4b57604051633250574960e11b81526001600160a01b0385166004820152602401610441565b805181602001fd5b6001600160e01b03198116630a85bd0160e11b14610e8f57604051633250574960e11b81526001600160a01b0385166004820152602401610441565b5050505050565b60606000610ea3836110aa565b600101905060008167ffffffffffffffff811115610ec357610ec361139a565b6040519080825280601f01601f191660200182016040528015610eed576020820181803683370190505b5090508181016020015b600019016f181899199a1a9b1b9c1cb0b131b232b360811b600a86061a8153600a8504945084610ef757509392505050565b8080610f3d57506001600160a01b03821615155b15610fff576000610f4d84610af6565b90506001600160a01b03831615801590610f795750826001600160a01b0316816001600160a01b031614155b8015610f8c5750610f8a818461089c565b155b15610fb55760405163a9fbf51f60e01b81526001600160a01b0384166004820152602401610441565b8115610ffd5783856001600160a01b0316826001600160a01b03167f8c5be1e5ebec7d5bd14f71427d1e84f3dd0314c0f7b2291e5b200ac8c7c3b92560405160405180910390a45b505b5050600090815260046020526040902080546001600160a01b0319166001600160a01b0392909216919091179055565b61103a838383611182565b6104c6576001600160a01b03831661106857604051637e27328960e01b815260048101829052602401610441565b60405163177e802f60e01b81526001600160a01b038316600482015260248101829052604401610441565b61109d83836111e8565b6104c66000848484610d6d565b60008072184f03e93ff9f4daa797ed6e38ed64bf6a1f0160401b83106110e95772184f03e93ff9f4daa797ed6e38ed64bf6a1f0160401b830492506040015b6d04ee2d6d415b85acef81000000008310611115576d04ee2d6d415b85acef8100000000830492506020015b662386f26fc10000831061113357662386f26fc10000830492506010015b6305f5e100831061114b576305f5e100830492506008015b612710831061115f57612710830492506004015b60648310611171576064830492506002015b600a831061034b5760010192915050565b60006001600160a01b038316158015906111e05750826001600160a01b0316846001600160a01b031614806111bc57506111bc848461089c565b806111e057506000828152600460205260409020546001600160a01b038481169116145b949350505050565b6001600160a01b03821661121257604051633250574960e11b815260006004820152602401610441565b600061122083836000610b3c565b90506001600160a01b038116156104c6576040516339e3563760e11b815260006004820152602401610441565b6001600160e01b031981168114610af357600080fd5b60006020828403121561127557600080fd5b81356108958161124d565b60005b8381101561129b578181015183820152602001611283565b50506000910152565b600081518084526112bc816020860160208601611280565b601f01601f19169290920160200192915050565b60208152600061089560208301846112a4565b6000602082840312156112f557600080fd5b5035919050565b80356001600160a01b038116811461131357600080fd5b919050565b6000806040838503121561132b57600080fd5b611334836112fc565b946020939093013593505050565b60008060006060848603121561135757600080fd5b611360846112fc565b925061136e602085016112fc565b929592945050506040919091013590565b60006020828403121561139157600080fd5b610895826112fc565b634e487b7160e01b600052604160045260246000fd5b60008067ffffffffffffffff8411156113cb576113cb61139a565b50604051601f19601f85018116603f0116810181811067ffffffffffffffff821117156113fa576113fa61139a565b60405283815290508082840185101561141257600080fd5b83836020830137600060208583010152509392505050565b600082601f83011261143b57600080fd5b610895838335602085016113b0565b60008060006060848603121561145f57600080fd5b833567ffffffffffffffff81111561147657600080fd5b6114828682870161142a565b935050602084013567ffffffffffffffff81111561149f57600080fd5b6114ab8682870161142a565b93969395505050506040919091013590565b600080604083850312156114d057600080fd5b50508035926020909101359150565b82151581526040602082015260006111e060408301846112a4565b6000806040838503121561150d57600080fd5b611516836112fc565b91506020830135801515811461152b57600080fd5b809150509250929050565b6000806000806080858703121561154c57600080fd5b611555856112fc565b9350611563602086016112fc565b925060408501359150606085013567ffffffffffffffff81111561158657600080fd5b8501601f8101871361159757600080fd5b6115a6878235602084016113b0565b91505092959194509250565b600080604083850312156115c557600080fd5b6115ce836112fc565b91506115dc602084016112fc565b90509250929050565b602081526000825160a0602084015261160160c08401826112a4565b90506020840151601f1984830301604085015261161e82826112a4565b9150506040840151606084015260018060a01b036060850151166080840152608084015160a08401528091505092915050565b600181811c9082168061166557607f821691505b60208210810361168557634e487b7160e01b600052602260045260246000fd5b50919050565b8082018082111561034b57634e487b7160e01b600052601160045260246000fd5b601f8211156104c657828211156104c657806000526020600020601f840160051c60208510156116da575060005b90810190601f840160051c0360005b818110156116ff576000838201556001016116e9565b505050505050565b815167ffffffffffffffff8111156117215761172161139a565b6117358161172f8454611651565b846116ac565b6020601f82116001811461176957600083156117515750848201515b600019600385901b1c1916600184901b178455610e8f565b600084815260208120601f198516915b828110156117995787850151825560209485019460019092019101611779565b50848210156117b75786840151600019600387901b60f8161c191681555b50505050600190811b01905550565b6060815260006117d960608301866112a4565b82810360208401526117eb81866112a4565b915050826040830152949350505050565b6000835161180e818460208801611280565b835190830190611822818360208801611280565b01949350505050565b6001600160a01b038581168252841660208201526040810183905260806060820181905260009061185e908301846112a4565b9695505050505050565b60006020828403121561187a57600080fd5b81516108958161124d56fea2646970667358221220213740796d6149c4ce242dfdf2f48dcc429c7286317f7ba3107c6e4d073d80dd64736f6c63430008230033",
  "linkReferences": {},
  "deployedLinkReferences": {}
}