{
  "_format": "hh-sol-artifact-1",
  "contractName": "ALULogoToken",
  "sourceName": "contracts/ALULogoToken.sol",
  "abi": [
    {
      "inputs": [
        {
          "internalType": "address",
          "name": "logoOwner",
          "type": "address"
        }
      ],
      "stateMutability": "nonpayable",
      "type": "constructor"
    },
    {
      "inputs": [
        {
          "internalType": "address",
          "name": "spender",
          "type": "address"
        },
        {
          "internalType": "uint256",
          "name": "allowance",
          "type": "uint256"
        },
        {
          "internalType": "uint256",
          "name": "needed",
          "type": "uint256"
        }
      ],
      "name": "ERC20InsufficientAllowance",
      "type": "error"
    },
    {
      "inputs": [
        {
          "internalType": "address",
          "name": "sender",
          "type": "address"
        },
        {
          "internalType": "uint256",
          "name": "balance",
          "type": "uint256"
        },
        {
          "internalType": "uint256",
          "name": "needed",
          "type": "uint256"
        }
      ],
      "name": "ERC20InsufficientBalance",
      "type": "error"
    },
    {
      "inputs": [
        {
          "internalType": "address",
          "name": "approver",
          "type": "address"
        }
      ],
      "name": "ERC20InvalidApprover",
      "type": "error"
    },
    {
      "inputs": [
        {
          "internalType": "address",
          "name": "receiver",
          "type": "address"
        }
      ],
      "name": "ERC20InvalidReceiver",
      "type": "error"
    },
    {
      "inputs": [
        {
          "internalType": "address",
          "name": "sender",
          "type": "address"
        }
      ],
      "name": "ERC20InvalidSender",
      "type": "error"
    },
    {
      "inputs": [
        {
          "internalType": "address",
          "name": "spender",
          "type": "address"
        }
      ],
      "name": "ERC20InvalidSpender",
      "type": "error"
    },
    {
      "inputs": [
        {
          "internalType": "address",
          "name": "owner",
          "type": "address"
        }
      ],
      "name": "OwnableInvalidOwner",
      "type": "error"
    },
    {
      "inputs": [
        {
          "internalType": "address",
          "name": "account",
          "type": "address"
        }
      ],
      "name": "OwnableUnauthorizedAccount",
      "type": "error"
    },
    {
      "anonymous": false,
      "inputs": [
        {
          "indexed": true,
          "internalType": "address",
          "name": "owner",
          "type": "address"
        },
        {
          "indexed": true,
          "internalType": "address",
          "name": "spender",
          "type": "address"
        },
        {
          "indexed": false,
          "internalType": "uint256",
          "name": "value",
          "type": "uint256"
        }
      ],
      "name": "Approval",
      "type": "event"
    },
    {
      "anonymous": false,
      "inputs": [
        {
          "indexed": true,
          "internalType": "address",
          "name": "previousOwner",
          "type": "address"
        },
        {
          "indexed": true,
          "internalType": "address",
          "name": "newOwner",
          "type": "address"
        }
      ],
      "name": "OwnershipTransferred",
      "type": "event"
    },
    {
      "anonymous": false,
      "inputs": [
        {
          "indexed": true,
          "internalType": "address",
          "name": "from",
          "type": "address"
        },
        {
          "indexed": true,
          "internalType": "address",
          "name": "to",
          "type": "address"
        },
        {
          "indexed": false,
          "internalType": "uint256",
          "name": "value",
          "type": "uint256"
        }
      ],
      "name": "Transfer",
      "type": "event"
    },
    {
      "inputs": [],
      "name": "INITIAL_SUPPLY",
      "outputs": [
        {
          "internalType": "uint256",
          "name": "",
          "type": "uint256"
        }
      ],
      "stateMutability": "view",
      "type": "function"
    },
    {
      "inputs": [
        {
          "internalType": "address",
          "name": "owner",
          "type": "address"
        },
        {
          "internalType": "address",
          "name": "spender",
          "type": "address"
        }
      ],
      "name": "allowance",
      "outputs": [
        {
          "internalType": "uint256",
          "name": "",
          "type": "uint256"
        }
      ],
      "stateMutability": "view",
      "type": "function"
    },
    {
      "inputs": [
        {
          "internalType": "address",
          "name": "spender",
          "type": "address"
        },
        {
          "internalType": "uint256",
          "name": "value",
          "type": "uint256"
        }
      ],
      "name": "approve",
      "outputs": [
        {
          "internalType": "bool",
          "name": "",
          "type": "bool"
        }
      ],
      "stateMutability": "nonpayable",
      "type": "function"
    },
    {
      "inputs": [
        {
          "internalType": "address",
          "name": "account",
          "type": "address"
        }
      ],
      "name": "balanceOf",
      "outputs": [
        {
          "internalType": "uint256",
          "name": "",
          "type": "uint256"
        }
      ],
      "stateMutability": "view",
      "type": "function"
    },
    {
      "inputs": [],
      "name": "decimals",
      "outputs": [
        {
          "internalType": "uint8",
          "name": "",
          "type": "uint8"
        }
      ],
      "stateMutability": "view",
      "type": "function"
    },
    {
      "inputs": [
        {
          "internalType": "address",
          "name": "recipient",
          "type": "address"
        },
        {
          "internalType": "uint256",
          "name": "amount",
          "type": "uint256"
        }
      ],
      "name": "distributeShares",
      "outputs": [],
      "stateMutability": "nonpayable",
      "type": "function"
    },
    {
      "inputs": [],
      "name": "name",
      "outputs": [
        {
          "internalType": "string",
          "name": "",
          "type": "string"
        }
      ],
      "stateMutability": "view",
      "type": "function"
    },
    {
      "inputs": [],
      "name": "owner",
      "outputs": [
        {
          "internalType": "address",
          "name": "",
          "type": "address"
        }
      ],
      "stateMutability": "view",
      "type": "function"
    },
    {
      "inputs": [
        {
          "internalType": "address",
          "name": "holder",
          "type": "address"
        }
      ],
      "name": "ownershipPercentage",
      "outputs": [
        {
          "internalType": "uint256",
          "name": "",
          "type": "uint256"
        }
      ],
      "stateMutability": "view",
      "type": "function"
    },
    {
      "inputs": [],
      "name": "renounceOwnership",
      "outputs": [],
      "stateMutability": "nonpayable",
      "type": "function"
    },
    {
      "inputs": [],
      "name": "symbol",
      "outputs": [
        {
          "internalType": "string",
          "name": "",
          "type": "string"
        }
      ],
      "stateMutability": "view",
      "type": "function"
    },
    {
      "inputs": [],
      "name": "totalSupply",
      "outputs": [
        {
          "internalType": "uint256",
          "name": "",
          "type": "uint256"
        }
      ],
      "stateMutability": "view",
      "type": "function"
    },
    {
      "inputs": [
        {
          "internalType": "address",
          "name": "to",
          "type": "address"
        },
        {
          "internalType": "uint256",
          "name": "value",
          "type": "uint256"
        }
      ],
      "name": "transfer",
      "outputs": [
        {
          "internalType": "bool",
          "name": "",
          "type": "bool"
        }
      ],
      "stateMutability": "nonpayable",
      "type": "function"
    },
    {
      "inputs": [
        {
          "internalType": "address",
          "name": "from",
          "type": "address"
        },
        {
          "internalType": "address",
          "name": "to",
          "type": "address"
        },
        {
          "internalType": "uint256",
          "name": "value",
          "type": "uint256"
        }
      ],
      "name": "transferFrom",
      "outputs": [
        {
          "internalType": "bool",
          "name": "",
          "type": "bool"
        }
      ],
      "stateMutability": "nonpayable",
      "type": "function"
    },
    {
      "inputs": [
        {
          "internalType": "address",
          "name": "newOwner",
          "type": "address"
        }
      ],
      "name": "transferOwnership",
      "outputs": [],
      "stateMutability": "nonpayable",
      "type": "function"
    }
  ],
  "bytecode": "0x608060405234801561001057600080fd5b50604051610ebb380380610ebb83398101604081905261002f916102f2565b806040518060400160405280600e81526020016d20a62a902637b3b7902a37b5b2b760911b815250604051806040016040528060048152602001631053155560e21b815250816003908161008391906103ce565b50600461009082826103ce565b5050506001600160a01b0381166100c257604051631e4fbdf760e01b8152600060048201526024015b60405180910390fd5b6100cb8161013c565b506001600160a01b0381166101225760405162461bcd60e51b815260206004820152601560248201527f496e76616c6964206f776e65722061646472657373000000000000000000000060448201526064016100b9565b6101368169d3c21bcecceda100000061018e565b506104b7565b600580546001600160a01b038381166001600160a01b0319831681179093556040519116919082907f8be0079c531659141344cd1fd0a4f28419497f9722a3daafe3b4186f6b6457e090600090a35050565b6001600160a01b0382166101b85760405163ec442f0560e01b8152600060048201526024016100b9565b6101c4600083836101c8565b5050565b6001600160a01b0383166101f35780600260008282546101e89190610490565b909155506102659050565b6001600160a01b038316600090815260208190526040902054818110156102465760405163391434e360e21b81526001600160a01b038516600482015260248101829052604481018390526064016100b9565b6001600160a01b03841660009081526020819052604090209082900390555b6001600160a01b038216610281576002805482900390556102a0565b6001600160a01b03821660009081526020819052604090208054820190555b816001600160a01b0316836001600160a01b03167fddf252ad1be2c89b69c2b068fc378daa952ba7f163c4a11628f55a4df523b3ef836040516102e591815260200190565b60405180910390a3505050565b60006020828403121561030457600080fd5b81516001600160a01b038116811461031b57600080fd5b9392505050565b634e487b7160e01b600052604160045260246000fd5b600181811c9082168061034c57607f821691505b60208210810361036c57634e487b7160e01b600052602260045260246000fd5b50919050565b601f8211156103c957828211156103c957806000526020600020601f840160051c60208510156103a0575060005b90810190601f840160051c0360005b818110156103c5576000838201556001016103af565b5050505b505050565b81516001600160401b038111156103e7576103e7610322565b6103fb816103f58454610338565b84610372565b6020601f82116001811461042f57600083156104175750848201515b600019600385901b1c1916600184901b178455610489565b600084815260208120601f198516915b8281101561045f578785015182556020948501946001909201910161043f565b508482101561047d5786840151600019600387901b60f8161c191681555b505060018360011b0184555b5050505050565b808201808211156104b157634e487b7160e01b600052601160045260246000fd5b92915050565b6109f5806104c66000396000f3fe608060405234801561001057600080fd5b50600436106100f55760003560e01c8063715018a611610097578063d8dab03311610066578063d8dab033146101e9578063dd62ed3e146101fc578063debcf0e514610235578063f2fde38b1461024857600080fd5b8063715018a6146101a95780638da5cb5b146101b357806395d89b41146101ce578063a9059cbb146101d657600080fd5b806323b872dd116100d357806323b872dd1461014d5780632ff2e9dc14610160578063313ce5671461017157806370a082311461018057600080fd5b806306fdde03146100fa578063095ea7b31461011857806318160ddd1461013b575b600080fd5b61010261025b565b60405161010f91906107fd565b60405180910390f35b61012b610126366004610867565b6102ed565b604051901515815260200161010f565b6002545b60405190815260200161010f565b61012b61015b366004610891565b610307565b61013f69d3c21bcecceda100000081565b6040516012815260200161010f565b61013f61018e3660046108ce565b6001600160a01b031660009081526020819052604090205490565b6101b161032b565b005b6005546040516001600160a01b03909116815260200161010f565b61010261033f565b61012b6101e4366004610867565b61034e565b61013f6101f73660046108ce565b61035c565b61013f61020a3660046108f0565b6001600160a01b03918216600090815260016020908152604080832093909416825291909152205490565b6101b1610243366004610867565b610395565b6101b16102563660046108ce565b610457565b60606003805461026a90610923565b80601f016020809104026020016040519081016040528092919081815260200182805461029690610923565b80156102e35780601f106102b8576101008083540402835291602001916102e3565b820191906000526020600020905b8154815290600101906020018083116102c657829003601f168201915b5050505050905090565b6000336102fb818585610495565b60019150505b92915050565b6000336103158582856104a2565b610320858585610520565b506001949350505050565b61033361057f565b61033d60006105ac565b565b60606004805461026a90610923565b6000336102fb818585610520565b600061036760025490565b6001600160a01b03831660009081526020819052604090205461038b906064610973565b610301919061098a565b61039d61057f565b6001600160a01b0382166103f85760405162461bcd60e51b815260206004820152601960248201527f496e76616c696420726563697069656e7420616464726573730000000000000060448201526064015b60405180910390fd5b600081116104485760405162461bcd60e51b815260206004820181905260248201527f416d6f756e74206d7573742062652067726561746572207468616e207a65726f60448201526064016103ef565b610452828261034e565b505050565b61045f61057f565b6001600160a01b03811661048957604051631e4fbdf760e01b8152600060048201526024016103ef565b610492816105ac565b50565b61045283838360016105fe565b6001600160a01b03838116600090815260016020908152604080832093861683529290522054600019811461051a578181101561050b57604051637dc7a0d960e11b81526001600160a01b038416600482015260248101829052604481018390526064016103ef565b61051a848484840360006105fe565b50505050565b6001600160a01b03831661054a57604051634b637e8f60e11b8152600060048201526024016103ef565b6001600160a01b0382166105745760405163ec442f0560e01b8152600060048201526024016103ef565b6104528383836106d3565b6005546001600160a01b0316331461033d5760405163118cdaa760e01b81523360048201526024016103ef565b600580546001600160a01b038381166001600160a01b0319831681179093556040519116919082907f8be0079c531659141344cd1fd0a4f28419497f9722a3daafe3b4186f6b6457e090600090a35050565b6001600160a01b0384166106285760405163e602df0560e01b8152600060048201526024016103ef565b6001600160a01b03831661065257604051634a1406b160e11b8152600060048201526024016103ef565b6001600160a01b038085166000908152600160209081526040808320938716835292905220829055801561051a57826001600160a01b0316846001600160a01b03167f8c5be1e5ebec7d5bd14f71427d1e84f3dd0314c0f7b2291e5b200ac8c7c3b925846040516106c591815260200190565b60405180910390a350505050565b6001600160a01b0383166106fe5780600260008282546106f391906109ac565b909155506107709050565b6001600160a01b038316600090815260208190526040902054818110156107515760405163391434e360e21b81526001600160a01b038516600482015260248101829052604481018390526064016103ef565b6001600160a01b03841660009081526020819052604090209082900390555b6001600160a01b03821661078c576002805482900390556107ab565b6001600160a01b03821660009081526020819052604090208054820190555b816001600160a01b0316836001600160a01b03167fddf252ad1be2c89b69c2b068fc378daa952ba7f163c4a11628f55a4df523b3ef836040516107f091815260200190565b60405180910390a3505050565b602081526000825180602084015260005b8181101561082b576020818601810151604086840101520161080e565b506000604082850101526040601f19601f83011684010191505092915050565b80356001600160a01b038116811461086257600080fd5b919050565b6000806040838503121561087a57600080fd5b6108838361084b565b946020939093013593505050565b6000806000606084860312156108a657600080fd5b6108af8461084b565b92506108bd6020850161084b565b929592945050506040919091013590565b6000602082840312156108e057600080fd5b6108e98261084b565b9392505050565b6000806040838503121561090357600080fd5b61090c8361084b565b915061091a6020840161084b565b90509250929050565b600181811c9082168061093757607f821691505b60208210810361095757634e487b7160e01b600052602260045260246000fd5b50919050565b634e487b7160e01b600052601160045260246000fd5b80820281158282048414176103015761030161095d565b6000826109a757634e487b7160e01b600052601260045260246000fd5b500490565b808201808211156103015761030161095d56fea26469706673582212205945278cd884ff27cb4ac8c0702c35cdd759003d4980d0125ed7e418b1016faf64736f6c63430008230033",
  "linkReferences": {},
  "deployedLinkReferences": {}
}